:060000000A128A1100291A
:10000800F000030EF1000B1912200C1824208C1894
:100018003120710E8300F00E700E09000313831255
:10002800F03081000B11880121181F28260887004D
:1000380008142114080027088700881421100800D4
:100048000313831285308F00A3308E000C10A00A92
:1000580020083C3C0319A00108008C10061A362819
:080068000616372806120800F5
:1002000024212B213C21492159216721A0010313DD
:10021000831287010D211D210A29A2012008A400B3
:100220002408A5000A30A402031C1A292408A500EA
:10023000A20A12292508A300080023080022A6000C
:1002400022080022A7000800031383160F138F163D
:100250000F160F1408000317831688018901031372
:100260008316850106128701880103138312850115
:10027000860187018801080003138316811281110A
:1002800001118114011003138312F03081000B114E
:10029000080003138312101490109011901610127E
:1002A00010130313831285308F00A3308E000C10BF
:1002B00008000313831292141214121512179216C7
:1002C0001216921503138316F530920008000313DB
:1002D00083160C148C14031383128B170B178B16B5
:0802E0000B110C108C1008003A
:100400008A018A140F3982073F3406345B344F3433
:1004100066346D347D3407347F346F3477347C3404
:0804200039345E347934713483
:04400E00C420FF3F8C
:00000001FF
