:060000000A128A1100291A
:10000800F000030EF1000B1912200C1824208C1894
:100018002D20710E8300F00E700E09000313831259
:10002800F03081000B11880122181F28260887004C
:1000380008142214080027088700881422100800D2
:100048000313831285308F00A3308E000C10850AAD
:1000580008008C10061A32280616332806120800E3
:100200001B2122213321402150215E21031383121F
:100210000508A3000D211421082923080F39A40083
:10022000230E0F39A500080024080022A600250887
:100230000022A7000800031383160F138F160F1652
:100240000F1408000317831688018901031383160E
:100250008501061287018801031383128501860137
:10026000870188010800031383168112811101118F
:100270008114011003138312F03081000B11080068
:100280000313831210149010901190161012101373
:100290000313831285308F00A3308E000C100800EA
:1002A00003138312921412141215121792161216B7
:1002B000921503138316F53092000800031383167A
:1002C0000C148C14031383128B170B178B160B1142
:0602D0000C108C10080068
:100400008A018A140F3982073F3406345B344F3433
:1004100066346D347D3407347F346F3477347C3404
:0804200039345E347934713483
:04400E00C420FF3F8C
:00000001FF
