:060000000A128A1100291A
:10000800F000030EF1000C1810208C181F20710E40
:100018008300F00E700E0900031383120B308F005B
:10002800DC308E000C10A00A2008023C031D1E289C
:10003800850AA00108008C10A20A22080A3C031DA8
:100048002B280618292806142A280610A2010800B9
:1002000008210F211C212C213A21031383120729D5
:10021000031383160F178F160F120F1408000317FE
:1002200083168801890103138316850106100313C1
:1002300083128501860108000313831210149010A5
:100240009011901610161013031383120B308F00A9
:10025000DC308E000C100800031383129214121469
:100260001215121792161216921503138316C43024
:1002700092000800031383160C148C1403138312CA
:0A0280008B170B170C108C100800F0
:04400E00C420FF3F8C
:00000001FF
