:060000000A128A1100291A
:10000800F000030EF1000C180E20710E8300F00EA4
:10001800700E0900031383120B308F00DC308E0042
:100028000C10A00A2008023C031D1C28850AA00108
:020038000800BE
:1002000007210E2119212921031383120629031323
:1002100083160F178F160F120F140800031783167B
:100220008801890103138316850103138312850155
:1002300008000313831210149010901190161016DA
:100240001013031383120B308F00DC308E000C1060
:100250000800031383160C14031383128B170B1758
:040260000C10080076
:04400E00C420FF3F8C
:00000001FF
